:100000000C941D050C9445050C9445050C94450570
:100010000C9445050C9445050C9445050C94450538
:100020000C9445050C9445050C9445050C94C81595
:100030000C9445050C9445050C9445050C94450518
:100040000C9473150C9445050C9445050C944505CA
:100050000C9445050C9445050C9445050C944505F8
:100060000C9445050C9445050101FF030101F703BC
:10007000101000000060062A1A5EF7B4DFECCC1EF8
:100080006FE07F3C32861FB02E3C05F801A4114082
:10009000000010100000006006200240F780CE042F
:1000A000C8F865C07B0032C8130005C0009000800E
:1000B0000000000010100000000040004800800018
:1000C000D400A0001000C400400020000000000088
:1000D00000000000000010100000000020020200DC
:1000E0000020048000040002202A0480011614006D
:1000F00008925601092A0004101000000000660052
:100100002442346615A4156C17DAD7FE65A235BEF5
:10011000798AAFBBEEAF7BBE3FFC10100000000041
:100120000000000000000000000027C22FFE2FA2E8
:100130003FF87FFEFFFFEEEF7FFE3FFC1010000058
:1001400000000000000000000000000087C24FFE19
:100150006FA23FF87FFEFFFFFFFF77763FFC101096
:100160007F00FD80FF80FF802F803F8007C207E275
:100170000FF30BFF03FF03FF03FE03FC0210063027
:10018000101000FE01BF01FF01FF01F401FC43E07C
:1001900047E0CFF0FFD0FFC0FFC07FC03FC00840A6
:1001A0000C6010107F00FD80FF80FF800F803F807B
:1001B00007C107E11FF313FF03FF03FF01FE01FC6B
:1001C00001100330101000FE01BF01FF01FF01F01C
:1001D00001FC83E087E0CFF8FFC8FFC0FFC07F804D
:1001E0003F80110019806C0068000500893008020A
:1001F00038024978681400000500380168010000E1
:10020000175344001613780016131400151020001D
:1002100015201000540A03E181867F3E186D830F7C
:100220000F0E0183866033186DC3198F1803C38EB8
:100230006033186DE330CF1803C39E603630CDE3D2
:1002400060CF3006C79E7E3E30CDB360CF300CC647
:10025000F6603330D9B660CF33CFCCF66061B0DB17
:100260001E60CF30D86CE6C061B0DB1E618F19987C
:100270006CC6C063B19B0E330F0FB078C6FF7E1FF4
:100280001B061E0F40240000000000000000FFFFBE
:10029000FFFFFFFFFFFE8000000000000002BF3EE6
:1002A0003B30E3673DFABF336DE1F36DB1FA8C3358
:1002B0006CC31B6DB0628DBE78C31B6F1C628DB6A4
:1002C00061E31B6C6C628C373B31F1C73C62800090
:1002D0000000F80000028000000000000002FFFFA4
:1002E000FFFFFFFFFFFE000001E000000000000034
:1002F0000618000000007676C4C81FFE0000556492
:1003000089247FF3C000764249E47FF3C00045763C
:10031000C5287FFFC000000006187FFFC000000056
:1003200001E07FFFC000000000007FFFC00030FF41
:1003300001807FFFC00033FFFF8000FFC00033FF5C
:10034000FF8007FFC00033FEC18007FFC00033FEFF
:10035000C180001FF0063FFFFC00001FF8063FFFB2
:10036000FC0001FFFF1E7FFFFF8001FFFF1E7FFFDC
:10037000FFE001FFFF1E7FFFFFE0010FFFFE73E7BD
:10038000CFE0000FFFFE73E7CFE912EF334E7FFFA0
:10039000FF955547AD6E3FFFFE14E24393680000A2
:1003A00000000003FFF800582B000000000000C010
:1003B0000000000000000FFFFE01880200000000A6
:1003C00003FFFFFF0318C6800000001FFFFFFF862A
:1003D000318D801C00007FFFFFFF8E639B0060005B
:1003E00000FFFFFFFF8C472031C00000FFFFFFFF31
:1003F000983F00F6038001FC1FFFFF987FFFE40F8A
:100400000001FC1FFFFF80F3FFC07E6001FC1FFFA7
:10041000FF83E7C007F9F001FC1FFFFF0FCFFFFFCD
:10042000FFF001FFFFFFFF3C3FFF80000001FFFFE7
:10043000FFFF3FFF03FFFFF001FFFFFFFE3BFFFF5A
:10044000FFFFF001FFFFFFF86207FFFFFFF001FF72
:10045000FFFF00FFFFFC00000001FFFFFC1F8FFFFC
:10046000FFFFFFF001FFFFF07FFFFFFFFFFFF00145
:10047000FFFFF1FCFFC00000000001FFFFE78780E5
:10048000000000000001FFFFE7FF80000000000007
:1004900003FFFFE1FEFE001FFFFFF003FFFFE03F51
:1004A0007FFFFFFFFFF007FFFFF81F9FFFFFFFFF2A
:1004B000F007FFFFFFEFFE00780000700FFFFFFF67
:1004C000E7FFFFFFFFFFF01FFFFFFFE3F3FFFFFF6B
:1004D000FFF03FFFFFFC03F9F1E04FFB90FFFFFF50
:1004E0008001BE7E3F387FC0FFFFFF00019E7FFF7F
:1004F000067EE0FFFFFF0001DF0FF7E38FE0FFFF65
:10050000FF0001CF8B3BFCC660FFFFFF000063C113
:1005100098FF0720FFFFFF000030F0C607C300FF71
:10052000FFFFFF801B386300E000FFFFFFFFC009F3
:100530008C21C00000FFFFFFFFC0088610400000B4
:10054000FFFFFFFEC00CC200000000FFFFFFE6C07F
:10055000046300000000FFFFE066000418000000D4
:1005600000FFFFC03000060C00000000FFFFC000CD
:1005700000000600000000FFFFC0000000020000B5
:1005800000004C4556454C3A200040240000000035
:1005900000000000FFFFFFFFFFFFFFFE80000000E4
:1005A00000000002807080380E45DC02808145200A
:1005B000114512028883CAB015459E229C9A28A034
:1005C00015291472888A28A01139122280FA28B8B5
:1005D0000E11D20280000000000000028000000026
:1005E00000000002FFFFFFFFFFFFFFFE0000000012
:1005F00000000000000001E00000000000000618FC
:10060000000000007676C508000001FC556489C42E
:10061000000001FC76424924000001FE4576C5C871
:10062000000001FE0000061800000DFE000001E0C1
:1006300000000DFE0000000000000DFE00000000A4
:1006400000038FFE000000000001CFEA0000000060
:10065000380CCFF6000000003007FFEA0000000071
:100660003CFFFFFE000000001FFFFFFE0000000037
:100670001FFFFFFE000000001FFFFFFC0000000046
:100680000FFFFFFC0000000007FFFFF8244B9996C6
:1006900007FFFC0055550A520F8FF9F053890D9250
:1006A0001FF87BFC0000000079FFF00053636F72BD
:1006B000653A2000581000000000000010000004FF
:1006C0008000000000084201332662500000000054
:1006D00000001219818370FFFFFFFFFFFFFFFFFF84
:1006E000FFF0000000002040080F8F8070F3CFEF74
:1006F0009F1801009838C730000000020004040170
:100700001039F000000000001050010000700000DF
:10071000000001000039CCD8309FEFBF8FF01004EB
:10072000E0764FF0000000000002403C1BF1F0FFBB
:10073000FFFFFFFFFFFFFFFFFFF0000000000000D2
:10074000481E070FF000000000004800F03C7BA0AE
:10075000000002001000438460C26000000001003D
:10076000100401C000400808081C264349995A3467
:1007700008080076DFBFDF6E3C181009040008008F
:100780007F00FE80FE80FF80FF807F003E0010091A
:10079000100008001C003E003A003C001C0018003D
:1007A0003000450068010000F6E8DBCFC3B8AEA416
:1007B0009B928A827B746E68625C57524E494541B7
:1007C0003E3A3734312E2C29272523210A0A153A9F
:1007D00049676E6F7265006D560A0A504C45415369
:1007E00045205455524E204F464620004C4F57202E
:1007F0004241545445525921200003053F213F12E4
:1008000008120A100A0E1C0E0C1E0C141A14161FC5
:10081000161E131E1E1B1E1E1F1E3F213F3A2F3A7F
:10082000173D173F213F181F02040A041F0E04043E
:100830000E1F0A1F0A0E0E1F04110E2E252E2F2A20
:100840002E262929021F02081F08150E04040E1562
:100850000E15151B151B040604040C0400000000F3
:1008600017000300031F0A1F16371A1904130A156D
:100870003A000300000E11110E000A040A040E04CF
:100880000030000404040010001804031F111F129C
:100890001F101D151711151F07041F17151D1F15F4
:1008A0001D01011F1F151F17151F000A0000320030
:1008B000040A110A0A0A110A040115020E11171E70
:1008C000051E1F150A0E110A1F110E1F15111F05F7
:1008D000010E111D1F041F111F1108100F1F041BF3
:1008E0001F10101F061F1E040F0E110E1F09060EEB
:1008F000112E1F051A121509011F011F101F0F18B5
:100900000F1F0C1F1B041B031C03191513001F11C1
:10091000030418111F000201022020200001020C14
:10092000121E1F120C0C12120C121F0C1A14041E91
:1009300005242A1E1F021C141D1020201D1F081430
:10094000111F101E041E1E021C0C120C3E0A040C69
:10095000123E1E040214160A020F120E101E0E1072
:100960000E1E081E120C1226281E322A26041E21D4
:10097000001F00211E040102013F213F172B1520FB
:1009800010204C4F4144455200172B1620131400E1
:1009900000000000240027002A00000000002500BD
:1009A00028002B000A4E6F2053442063617264209C
:1009B0006F720A6E6F204C4F414445522E48455885
:1009C0000A0A153A45786974001D20466C617368FF
:1009D000696E670A20206C6F616465722E2E2E0A84
:1009E0000A444F4E2754205455524E204F4646211C
:1009F0000000000000230026002900040404040471
:100A000004040402020202020203030303030301BB
:100A10000204081020408001020408102001020492
:100A20000810200000000800020100000304070075
:100A300000000000000000005F1C11241FBECFEF6B
:100A4000D8E0DEBFCDBF11E0A0E0B1E0E8E4FDE317
:100A500002C005900D92A634B107D9F723E0A6E4B1
:100A6000B1E001C01D92AF3EB207E1F715E0CDE164
:100A7000D5E004C02197FE010E94AE1CCC31D10705
:100A8000C9F70E94111C0C94A21E0C9400008AE26B
:100A900090E09093110180931001109250011092F8
:100AA0004F016EE170E080E090E00E945C13DC0199
:100AB000CB010A96A11DB11D9093050180930401FD
:100AC00010925801109257018BE090E090930F0123
:100AD00080930E0181E090E090934801809347015C
:100AE000909301018093000108958F929F92AF929D
:100AF000BF92CF92DF92EF92FF920F931F93CF930B
:100B0000DF930E94470582E38093E70381E090E052
:100B1000A0E0B0E08093E3039093E403A093E503A7
:100B2000B093E6038FEF8093D803E0E8F7E72591D1
:100B300034912130304C09F049C0E6E9F7E7E491FF
:100B4000E093C103E7E9F7E7E491E0936C03E8E998
:100B5000F7E7E491E0936D03E9E9F7E78591949174
:100B600090936F0380936E03EBE9F7E7859194917F
:100B7000909371038093700387E080939303EEE971
:100B8000F7E7E491E0939203EFE9F7E7E491E0936C
:100B9000D803E0EAF7E785919491909385038093D9
:100BA0008403E2EAF7E78591949190938703809319
:100BB0008603E4EAF7E78591949190938903809303
:100BC0008803E6EAF7E7859194912CC09CE3909323
:100BD000C10310926C0380936D0380E293E09093C5
:100BE0006F0380936E0384ED93E090937103809381
:100BF000700387E080939303809392038CEA9DE0D7
:100C000090938503809384038EED9DE090938703FA
:100C10008093860384E79EE0909389038093880302
:100C20008CE39FE090938B0380938A03C1E0C09391
:100C300068036FEF70E085E00E949E1488E0809367
:100C4000720389E08093730387E08093740386E0E6
:100C500080937503D4E0D093760382E0809377038A
:100C600081E1809378030E943E168CE39FE090938D
:100C7000830380938203D0938103C0938C038BE022
:100C80008093C4038DE08093C30380E18093C50308
:100C90008EE08093C7038FE08093C603C093BE03AA
:100CA000C093D6031092D703C093BD03EAEFF7E0D9
:100CB000E491EF5FE093BA03EBEFF7E0E491EF5FCD
:100CC000E093BB038CEF97E09093D5038093D4031C
:100CD000CFB7F89480914601811127C0E5E0FAE092
:100CE0008491E9E1FAE09491E82FF0E0EE0FFF1F24
:100CF000E057F64FA591B491EC91E92321F461E01E
:100D00008AE00E94321461E08AE00E9462148CB58D
:100D100080618CBD8CB580648CBD61E08DE00E94EB
:100D2000621461E08BE00E946214809146018F5F43
:100D300080934601CFBF8CB58F7D8CBD8CB58C7FE9
:100D400081608CBD8DB581608DBD8CB58C608CBD96
:100D500061E08091C4030E94621461E08091C3034A
:100D60000E94621461E08091C5030E946214809128
:100D7000C70318161CF461E00E9462148091C60338
:100D800018161CF461E00E9462148091C7031816C3
:100D900074F460E00E9432146AE070E080E090E059
:100DA0000E94391561E08091C7030E94321480913E
:100DB000C303082E000C990BFC01E550F64FE4919B
:100DC000F0E0EE0FFF1FE656F64F25913491309379
:100DD000CB032093CA03FC01E15FF54FE491E0935C
:100DE000D1038091C403082E000C990BFC01E5503F
:100DF000F64FE491F0E0EE0FFF1FE656F64F259117
:100E000034913093C9032093C803FC01E15FF54F8F
:100E1000E491E093D0038091C603082E000C990B57
:100E2000FC01E550F64FE491F0E0EE0FFF1FE656AF
:100E3000F64F259134913093CD032093CC03FC01E0
:100E4000E15FF54FE491E093D2038091C503082E52
:100E5000000C990BFC01E550F64FE491F0E0EE0F29
:100E6000FF1FE656F64F259134913093CF03209320
:100E7000CE03FC01E15FF54FE491E093D30381E2FF
:100E80000E94921684E10E9492168091C10387FF0E
:100E900003C08FE78093C1038091C10380680E94E3
:100EA000921680E20E9492168CE00E9492160E9496
:100EB000B116C1E0C093910384E08093B50386EE40
:100EC00091E090939D0380939C0360E080E00E94FA
:100ED0009B1761E070E083E00E949E148091B10056
:100EE000887F81608093B100F89410928000109206
:100EF0008100109285001092840088E191E0909327
:100F000089008093880080918100886080938100AF
:100F10008091810081608093810080916F00826068
:100F200080936F0078940E94ED1880917E03813049
:100F300019F4109292031CC0809181038823C9F395
:100F400080E00E9427168AEE91E090939B038093A5
:100F50009A031092A00310929F03C0938E0389E01E
:100F60008093A3031092A6031092A8031092AA03E1
:100F70008091D803882309F4EDC081E08093BE03FB
:100F80001092BD031092BC03109280038093D6038D
:100F90008093D703C6EAD3E08CE0F82E02EA17E08C
:100FA000EE24E39499E0D92E0E949B0D8823E1F36F
:100FB000FE018491882319F0C090BB0301C0C12CAD
:100FC00024E132E040E060E086EB93E00E942A19E1
:100FD0004CE04C0D24E832E060E086EB93E00E94A8
:100FE0002A191092BF03F092C00366EA73E086EB01
:100FF00093E00E9487138091BA03982F990F890F6D
:1010000081958D5A8093BF038091BB03982F990FD0
:10101000890F8195835D8093C0038091D90384FFFC
:1010200003C080E192E002C08CE092E00E94F116E1
:101030008091BA03982F990F890F81958D5A8093CB
:10104000BF038091C0038F5F8093C00380919203A0
:10105000882319F088E092E002C084E092E00E94C8
:10106000F1168091BA03982F990F890F81958D5AA7
:101070008093BF038091C0038F5F8093C00380E0A3
:1010800092E00E94F11680917E03813039F58091C3
:1010900092038F5F6091930387FD09C0082E000CB7
:1010A000990B70E06F5F7F4F0E94861C682F6093E2
:1010B000920380E00E94271610939B0300939A03EB
:1010C0001092A00310929F03E0928E03D092A3038C
:1010D0001092A6031092A8031092AA0380917D0398
:1010E0008130B9F08091D803482F50E060E070E083
:1010F0008090D9039090DA03A090DB03B090DC03DA
:1011000084169506A606B70608F46FC08F3F09F44B
:101110006CC08FEF8093D80380E00E94271680E098
:101120000E94271688EF91E090939B0380939A0387
:101130001092A00310929F0381E080938E0399E0A8
:101140009093A3031092A6031092A8031092AA03EF
:1011500080938003C0908203D0908303C094D09486
:10116000E12CF12C0E9414154B015C010E94141516
:10117000A501940120953095409550956095709506
:10118000809590950E946A1C9B01AC01C701B60135
:101190000E946A1C4B015C018091690390916A0373
:1011A0006C01E12CF12C0E941415C60ED71EE81E0E
:1011B000F91EC701B601680D791D8A1D9B1D6115B9
:1011C00071058105910511F00E94361E1092800371
:1011D000DF91CF911F910F91FF90EF90DF90CF9013
:1011E000BF90AF909F908F90089580917F03813042
:1011F00009F0DACE0E940417D7CE2F923F924F9279
:101200005F926F927F928F929F92AF92BF92CF9296
:10121000DF92EF92FF920F931F93CF93DF932224DD
:101220002394312C30EF432E55245A940E949B0D69
:10123000882309F46DC48091100190911101CC971D
:101240000CF0D5C280917F03813009F43BC32FE0BD
:1012500044E56FE080E00E94331286E30E94A8120A
:10126000C4E580910E014C2F481B23E063E086E328
:101270000E94331288E10E94A812809110014C2F25
:10128000481B23E063E088E10E94331241E0409371
:10129000BF031092C003C0905701D09058010D2C8D
:1012A000000CEE08FF08F7FE0EC06DE286EB93E03F
:1012B0000E94801344275527BA014C195D096E0915
:1012C0007F092AE003C02AE0B701A60186EB93E07C
:1012D0000E94C0136BE371E086EB93E00E94AB13B6
:1012E0000091550110915601C0910C01D0910D0152
:1012F000E0900A01F0900B01F801EE0FFF1FE55D91
:10130000FE4F208131814C2F6E2D86EB93E00E94A1
:101310002A198091530190915401059719F42EE8F0
:1013200037E002C02AE737E04091080160910601EA
:1013300086EB93E00E942A19E0915101F09152014D
:10134000EE0FFF1FED5DFE4F2081318140910401C2
:1013500060914F0186EB93E00E942A1920E737E065
:1013600040E06FE086EB93E00E942A1926E637E022
:1013700040E06DE286EB93E00E942A1910924E0144
:1013800010924D0180917B0381508E3FA8F4F4E4CC
:10139000EF16F1043CF48FEFE81AF80AF0920B0113
:1013A000E0920A010E5F1F4F033011050CF08DC251
:1013B00010935601009355018091790381508E3F1F
:1013C000C8F480910A0190910B01181619062CF4AB
:1013D000019790930B0180930A01809155019091A0
:1013E00056010296843091050CF074C29093560118
:1013F0008093550180917C0381508E3F40F4C83228
:10140000D1052CF42196D0930D01C0930C0180914D
:101410007A0381508E3F60F480910C0190910D0110
:10142000873091052CF0019790930D0180930C016A
:1014300080917D0381508E3FB8F480910E01909190
:101440000F018E3191052CF4019690930F0180933A
:101450000E0180915501909156018D7F009709F4FE
:101460003EC2019709F463C26091080170910901BD
:10147000A0910601B0910701E0915501F09156014C
:10148000EE0FFF1FE55DFE4FA080B18080910C0143
:1014900090910D0120910A0130910B01F5016490AA
:1014A000712C31968490EAE7F7E05491EBE7F7E08E
:1014B00044917901E60CF71CAE15BF050CF0F1C0A4
:1014C000ED01C50FD11D2C173D070CF0EAC0912C82
:1014D0006C01C80CD91C6C157D050CF0E2C08B01A9
:1014E000040F111D801791070CF0DBC02A173B0772
:1014F0000CF063C2FD01E21BF30B861797070CF09B
:1015000055C2AB01481B590BEC16FD061CF03E0101
:10151000621A730AC016D1061CF04801881A990A8B
:101520003E2F2A1B861BC42FD0E0C815D9050CF00E
:10153000B8C0932FE82EE40EF12C092F10E0061509
:1015400017050CF038C2F501A491E3E01595079555
:10155000EA95E1F70E5F1F4FB0E01796F3E0B595FF
:10156000A795FA95E1F7CA9FB001CB9F700DDA9F5E
:10157000700D1124F801E60FF71FEA0DFB1DE49131
:10158000F0E0592F577000E810E002C0159507955C
:101590005A95E2F7E023F123EF2B09F40AC2EAE7B8
:1015A000F7E0A491522F590FE52FF0E063E0F59595
:1015B000E7956A95E1F7B0E0179673E0B595A795C2
:1015C0007A95E1F7EA9EB001EB9E700DFA9E700DE0
:1015D0001124E60FF71FE458F84FE491F0E057703C
:1015E00060E870E002C0759567955A95E2F7E623CA
:1015F000F723EF2B09F4DDC1809157019091580139
:10160000059690935801809357016AE470E080E05A
:1016100090E00E945C13DC01CB010A96A11DB11D74
:10162000909307018093060164E170E080E090E010
:101630000E945C13DC01CB014496A11DB11D909367
:1016400009018093080180915301909154010597FD
:1016500009F053C230924C0120924B0188E590E092
:101660009093030180930201EBE0F0E0F0930F010F
:10167000E0930E0169E070E080E090E00E945C136E
:10168000DC01CB010196A11DB11D90935401809303
:10169000530180910E0190910F018C3091050CF057
:1016A00021C2809104019091050120914F01309158
:1016B000500140910C0150910D0160910A0170910F
:1016C0000B01FB0170962E173F07DCF4F9017096B1
:1016D0006E177F07B4F4FA0132968E179F078CF4C9
:1016E000FC0132964E175F0764F4E0911001F0910F
:1016F0001101EC33F1052CF43196F0931101E093D4
:101700001001E0917D03E150EE3F70F5E0910E0194
:10171000F0910F017E9744F56F5E7F4FE0910201DB
:10172000F0910301E60FF71F2E173F070CF448C195
:10173000209104013091050160914F017091500199
:1017400080910C0190910D0140910A0150910B0183
:1017500041515109E0910201F0910301E40FF51F9D
:101760006E177F070CF444C180914D0190914E019A
:1017700018161906E4F120914F01309150012435DB
:10178000310554F48091000190910101820F931F63
:101790009093500180934F0180914F01909150019F
:1017A000853491059CF05092500140924F016EE1BA
:1017B00070E080E090E00E945C13DC01CB010A96AF
:1017C000A11DB11D909305018093040180915101E9
:1017D000909152010196823091052CF49093520120
:1017E0008093510104C010925201109251018091D6
:1017F000100190911101CC9704F186EB93E00E94C7
:101800006C1A6CEA76E086EB93E00E948713609195
:1018100057017091580186EB93E00E94B7182AE8AF
:1018200035E04AE06AE086EB93E00E942A19809155
:101830007E0381508E3F08F452C1209147013091C0
:101840004801E4E6E29FC001E39F900D112420913E
:10185000570130915801281739070CF459C186EB0C
:1018600093E00E946C1A62E875E086EB93E00E94B8
:101870008713609147017091480186EB93E00E94C5
:10188000B71827EA33E045E060E086EB93E00E947A
:101890002A1980917E0381508E3F08F039C18091D2
:1018A0004701909148010196909348018093470128
:1018B0008091000190910101019690930101809324
:1018C0000001B4CC0E947505C2CC10925601109252
:1018D000550172CD30925601209255018BCD8091E9
:1018E0000E0190910F014D970CF04EC080914B016D
:1018F00090914C01009781F4E0914901F0914A01E7
:10190000EE0FFF1FE35EFE4F2081318160910A01DF
:101910006F5E40910C0120C00197B1F560910C0100
:10192000645080910A0144EB56E0865F2BC08091A1
:101930000E0190910F014E973CF580914B019091D3
:101940004C018130910569F440910C014450609143
:101950000A01615524EB36E086EB93E00E942A19D8
:1019600013C0892B89F4E0914901F0914A01EE0FEF
:10197000FF1FE35EFE4F4081518180910A0160911B
:101980000C0181510E94C8128091490190914A0135
:101990000196833091052CF490934A01809349017C
:1019A00063CD10924A01109249015ECD40E050E0B3
:1019B000ABCD9F5FC2CD4F5FB6CDE0E0F0E09DCDF7
:1019C000205F3F4F621773070CF0B2CEBA016E5E14
:1019D0007F4F9C01205F3F4F261737070CF0A8CEA2
:1019E0004296405F5F4F481759070CF0A1CE18C0D0
:1019F000605F7F4F461757070CF0B6CEBC016E5E96
:101A00007F4FA901405F5F4F461757070CF0ACCEE0
:101A10002E5E3F4F4096821793070CF0A5CE2FC045
:101A200080915501909156018D7F892B09F080CED0
:101A300030924E0120924D01E3E0F0E0F09352012C
:101A4000E09351015092500140924F016EE170E0DD
:101A500080E090E00E945C13DC01CB010A96A11D9E
:101A6000B11D9093050180930401809157019091DD
:101A700058010A96909358018093570159CE80914E
:101A80005501909156018D7F8130910509F06CCE02
:101A900090934E0180934D0183E090E0909352012A
:101AA000809351015092500140924F016EE170E0DD
:101AB00080E090E00E945C13DC01CB010A96A11D3E
:101AC000B11D90930501809304018091570190917D
:101AD00058010A96909358018093570145CE0E9471
:101AE0004705ABCE04978B30910514F48BE090E062
:101AF00090930F0180930E01D4CD10924C0110925F
:101B00004B0180E190E09093030180930201B2CDFC
:101B1000DF91CF911F910F91FF90EF90DF90CF90C9
:101B2000BF90AF909F908F907F906F905F904F90FD
:101B30003F902F9008954F925F926F927F928F9275
:101B40009F92AF92BF92CF92DF92EF92FF920F934C
:101B50001F93CF93DF9300D000D01F92CDB7DEB795
:101B60004091E8035091E9036091EA037091EB031F
:101B70002FB7F89480915B0190915C01A0915D0179
:101B8000B0915E012FBF481B590B6A0B7B0B8091F4
:101B9000E70390E0A0E0B0E00091E3031091E403DC
:101BA0002091E5033091E60384179507A607B70750
:101BB00030F4011511052105310509F045C3012B4C
:101BC000022B032B09F03EC380917F0381508E3F8F
:101BD000C0F580917E038130C9F5809192038F5FBB
:101BE0006091930387FD09C0082E000C990B70E0EB
:101BF0006F5F7F4F0E94861C682F6093920389E875
:101C000099E09093ED038093EC0388E48093EE03D6
:101C100080E00E94271682EA97E090939B038093CE
:101C20009A031092A00310929F0381E080938E0389
:101C300089E08093A3031092A6031092A803109248
:101C4000AA0380917F0381508E3F70F480917D03C1
:101C5000813009F0A5C38CE799E09093ED03809360
:101C6000EC0388E48093EE0380E00E9431178091BA
:101C70008E03882309F4ABC08091A2038111A7C011
:101C800080919A0390919B03E0919F03F091A003B0
:101C9000EE0FFF1FE80FF91F4591549141155105B3
:101CA000F1F420919E03222331F01092A0031092B0
:101CB0009F03FC0112C010928E0380918D03882334
:101CC00041F080E00E943117E0919F03F091A00362
:101CD0002DC080E00E9412167AC0459154919A015D
:101CE000369527953695279540FF51C0CA01B6E035
:101CF00096958795BA95E1F78F71952F969596955C
:101D0000969590512F70223071F1F8F4211117C07F
:101D10008B3008F08AE08093A303E0919F03F09159
:101D2000A0033196F093A003E0939F03EE0FFF1FF3
:101D300080919A0390919B03E80FF91FCECF213039
:101D400061F760E00E949B17E8CF2330B1F02430A8
:101D500021F720919103829F802D11248093AA0363
:101D60009093AB03DACF20919103829F802D1124B1
:101D70008093A6039093A703D0CF20919103829FD5
:101D8000802D11248093A8039093A903C6CF2F73AD
:101D90002093A10380919103859F802D112480932E
:101DA000A2031092B2031092B1031092B00381E02B
:101DB0008093A403809365031092A50380919F03F1
:101DC0009091A00301969093A00380939F0380912C
:101DD000A403882309F4EEC08091A203811103C0FB
:101DE0000E941216E7C081508093A2038091B20333
:101DF000811146C02091B0033091B1032F5F3F4F56
:101E0000C901880F991FE091AC03F091AD03E80F71
:101E1000F91F65917491862F87708093B303AB018E
:101E200063E0569547956A95E1F7CA0196958795BF
:101E3000972F969596959093B4038F7390919103F5
:101E4000899F802D11248093B203417040935A01E1
:101E50003093B1032093B0038091AE0390E0281734
:101E6000390770F02091AF03222339F0821B9109CA
:101E70009093B1038093B00303C080E00E941216D8
:101E80008091B20381508093B2038091A50321E039
:101E9000280F2093A5034091A1033091B403340F80
:101EA00080919903380F30938F036091A8036623C4
:101EB00071F070E0822F022E000C990B0E94861C9C
:101EC0008091A903869F300D112430938F03809158
:101ED0008F0390E0849664E270E00E94861C8093F9
:101EE0008F033091A303309390036091A603662380
:101EF00081F0062E000C770B822F022E000C990B1E
:101F00000E94861C8091A703869F300D1124309378
:101F100090036091AA036623A1F0822F220F990BF0
:101F200070E00E94861CCB0162E070E00E94861C7B
:101F30002091AB0390919003289F900D11249093D2
:101F40009003809190034F3341F08A300CF089E088
:101F500087FD80E08093900302C010929003F89474
:101F6000E0918F03F0E0E855F84FE491E0935901D8
:101F7000309190032091B5033203900111244091D8
:101F8000B3034203C001439F900D112400909203BC
:101F900002C0880F991F0A94E2F797FF02C0815888
:101FA0009F4F880F892F881F990B8093660380931A
:101FB000670378948091EE03882309F499C08C30EC
:101FC00020F49CE0D92ED81A01C0D12C81E0809356
:101FD000BE031092D6031092D7031091BB0383E087
:101FE000810F3D2D311B335D032FE82E880FFF0835
:101FF000E30EF11C37FDFA94802F002E000C990B94
:102000008E159F055CF42EE4402F63E086EB93E091
:102010003D830E94D51A0F5F3D81EECF145003E03F
:10202000030F212F41E0602F80E50E945418212FDB
:1020300042E0602F83E00E94541881E08093D60331
:102040008093D7030091BB038D2D801B3DE2F32EBF
:10205000F80E2EE44F2D63E086EB93E00E94D51A34
:1020600013E0100F1F0D4FEF410F2EE463E086EBDE
:1020700093E00E94D51A035033E0F30E202F4F2D2A
:1020800060E086EB93E00E94EE1B202F4F2D63E56E
:1020900086EB93E00E94EE1B41E06F2D83E00E94EF
:1020A000D61742E06F2D80E50E94D617145044E009
:1020B000612F80E50E94D61748E0612F83E00E94DF
:1020C000D61784E08093BF038091BB03D81A8D2D6F
:1020D000815D8093C0036091EC037091ED0386EB0A
:1020E00093E00E9487138091EE0381508093EE036A
:1020F0008091840390918503892B09F485C011E0B8
:102100001093D6031092D7039091BA0385E5891BEB
:102110008093BF031092C00360918103613009F482
:1021200054C030F080918003653008F066C061C013
:1021300080E00E9427161093BE03EAEFF7E0E491D7
:10214000EF5FE093BA03EBEFF7E0E491EF5FE0932A
:10215000BB038CEF97E09093D5038093D403109248
:102160008503109284031092BC0318EA0E949B0D11
:102170008823E1F36CEE77E086EB93E00E9487130F
:10218000409182035091830360E070E02AE086EB87
:1021900093E00E94C01367ED77E086EB93E00E9426
:1021A0008713612F62956F7070E086EB93E00E9459
:1021B000B7186CEC77E086EB93E00E948713809170
:1021C0007D03813009F0F2C01FC08091D903909146
:1021D000DA03A091DB03B091DC038F709927AA2763
:1021E000BB270897A105B10510F467E009C068E7AF
:1021F00007C0882349F06B5F03C0882329F06FE292
:1022000086EB93E00E9480130E94B1168091BC037C
:10221000811104C086EB93E00E946C1A0E94141591
:102220006093E3037093E4038093E5039093E603E4
:102230002091DF033091E003621B730B7093DE0388
:102240006093DD0380E0CCC02FB7F89480915B01F0
:1022500090915C01A0915D01B0915E012FBF209132
:10226000E703820F911DA11DB11D8093E803909398
:10227000E903A093EA03B093EB038091D903909113
:10228000DA03A091DB03B091DC030196A11DB11D1F
:102290008093D9039093DA03A093DB03B093DC031C
:1022A0001092E3031092E4031092E5031092E60308
:1022B0000E9414156093DF037093E0038093E103A1
:1022C0009093E2038091690390916A032FE0289F25
:1022D0008001299F100D112485E10E94FD14800FBB
:1022E000911F24E0969587952A95E1F790936A03CC
:1022F0008093690320916803222309F44BC0609105
:102300006C03262F30E040E050E029833A834B8372
:102310005C83C0906D03D12CE12CF12C40917003B3
:10232000509171034A01A12CB12C20916E03309180
:102330006F032901612C712C8217930728F09C01EF
:102340004817590708F49A01C901A0E0B0E09C01C0
:10235000AD01241935094609570969817A818B81B4
:102360009C816C197D098E099F090E946A1CA50138
:10237000940124193509460957090E943F1EC20ECF
:10238000D31EE41EF51EC0926B036C2D70E085E039
:102390000E949E140E943E160E94ED1881E020C00B
:1023A000893209F061CC0E9404175ECC115009F00B
:1023B000DDCE60E070E085E00E949E1483B7817FEF
:1023C000846083BF83B7816083BF83B7816083BF2D
:1023D000889583B78E7F83BF83B78E7F83BFC6CE3A
:1023E0000F900F900F900F900F90DF91CF911F9152
:1023F0000F91FF90EF90DF90CF90BF90AF909F90A4
:102400008F907F906F905F904F900895CF92DF9262
:10241000EF92FF920F931F93CF93DF936C017A019A
:102420008B01C0E0D0E0CE15DF0589F0D8016D91B9
:102430008D01D601ED91FC910190F081E02DC60156
:102440000995892B11F47E0102C02196ECCFC701BA
:10245000DF91CF911F910F91FF90EF90DF90CF9080
:1024600008950E94DE1DCF92DF92EF92FF920F93AC
:102470001F93CF93DF93C82FD62F142F422F022EF6
:10248000000C550B461B510967FD539557FF03C0C0
:10249000519541955109812F012E000C990B8C1BF0
:1024A0009109C7FD939597FF03C091958195910977
:1024B000DD24D3948417950714F0D12C06C0812F06
:1024C000122F282F8C2FCD2FD82F1C1734F48D2F9F
:1024D000D22F282F8C2FC12F182FE12EEC1A822FEC
:1024E000022E000C990B8D1B9109D7FD939597FF38
:1024F00003C0919581959109F82E0E2DE7FE02C03B
:1025000001E00E0D0595D2171CF0CC24CA9411C021
:10251000CC24C3940EC0DD2079F04C2F6D2F86EBB8
:1025200093E00E947D1A0F1907FF02C0DC0D0E0D0B
:10253000CF5F1C1784F703C04D2F6C2FF0CFDF91B6
:10254000CF911F910F91FF90EF90DF90CF90089562
:10255000CF93C82F24E142E0682F86EB93E00E94DE
:10256000D51A24E144E06C2F86EB93E00E94D51A43
:1025700023E042E06C2F86EB93E00E94EE1B63E1C8
:102580006C0F23E042E086EB93E0CF910C94EE1BBE
:102590002F923F924F925F926F927F928F929F9273
:1025A000AF92BF92CF92DF92EF92FF920F931F9361
:1025B000CF93DF9300D01F92CDB7DEB7362E6A01DE
:1025C000FA0154903196E491A52CB12C7501F7E0F5
:1025D000EF0EF11C93E0F594E7949A95E1F720E073
:1025E00030E8832E912C0E2F10E08150580E822F50
:1025F000022E000C990B8A159B050CF047C0922FF8
:1026000027FF02C097E0920F959595959595822F9B
:10261000877887FF03C08150886F8F5F340102C0C5
:10262000759467948A95E2F7412C892F990F990B3D
:10263000AC014E5F5F4F5B834A83252C221A842DA9
:10264000042C000C990B80179107F4F48E9DF00177
:102650008F9DF00D9E9DF00D11248A819B81E80FC6
:10266000F91FEC0DFD1DE491F0E0E621F721EF2BC1
:1026700049F0442D430D622D86EB93E029830E949F
:102680007D1A29814394DBCF2F5FB1CF0F900F903C
:102690000F90DF91CF911F910F91FF90EF90DF90FE
:1026A000CF90BF90AF909F908F907F906F905F90F2
:1026B0004F903F902F900895CF93DF9300D000D09C
:1026C000CDB7DEB7611571058105910579F09B01E4
:1026D000AC0169833A834B835C830E94311E29815C
:1026E0003A814B815C810E943F1E03C060E070E034
:1026F000CB010F900F900F900F90DF91CF91089525
:10270000DC01ED91FC910190F081E02D0994EF92B4
:10271000FF920F931F93CF93DF938C017B01C0E057
:10272000D0E0F701EC0FFD1F6491662361F0D80142
:10273000ED91FC910190F081E02DC8010995892B64
:1027400011F02196EECFCE01DF91CF911F910F9125
:10275000FF90EF9008956115710579F0FB010190EC
:102760000020E9F73197AF01461B570BDC01ED91D3
:10277000FC910280F381E02D099480E090E00895BF
:102780004F925F926F927F92EF92FF920F931F93FF
:10279000CF93DF93CDB7DEB7A1970FB6F894DEBF26
:1027A0000FBECDBF7C01FA01CB0119A2223008F483
:1027B0002AE08E010F5D1F4F422E512C612C712C8F
:1027C000BF01A30192010E94711EF901CA010150CB
:1027D00011096A3014F4605D01C0695CD8016C9322
:1027E000232B242B252B61F7B801C7010E94AB13C3
:1027F000A1960FB6F894DEBF0FBECDBFDF91CF918B
:102800001F910F91FF90EF907F906F905F904F908E
:102810000895833081F028F4813099F08230A1F05E
:1028200008958730A9F08830B9F08430D1F48091D0
:1028300080008F7D03C0809180008F77809380001F
:10284000089584B58F7702C084B58F7D84BD0895C7
:102850008091B0008F7703C08091B0008F7D80930E
:10286000B00008951F93CF93DF93282F30E0F90134
:10287000ED5DF54F8491F901E15FF54FD491F901D8
:10288000E550F64FC491CC23C9F0162F81110E9458
:102890000914EC2FF0E0EE0FFF1FE656F64FA5915E
:1028A000B4918FB7F894111105C09C91ED2FE0956C
:1028B000E92302C0EC91ED2BEC938FBFDF91CF9118
:1028C0001F910895CF93DF9390E0FC01E15FF54FF6
:1028D0002491FC01E550F64F8491882361F190E04A
:1028E000880F991FFC01E057F64FC591D491FC0168
:1028F000E656F64FA591B491611109C09FB7F894BF
:102900008881209582238883EC912E230BC062302E
:1029100061F49FB7F8943881822F80958323888350
:10292000EC912E2B2C939FBF06C08FB7F894E881B3
:102930002E2B28838FBFDF91CF9108951F93CF93C4
:10294000DF93182FEB0161E00E946214209711F4CD
:1029500060E004C0CF3FD10539F461E0812FDF9101
:10296000CF911F910C943214E12FF0E0ED5DF54F03
:10297000E491E330F9F048F4E130B9F0E230A1F548
:1029800084B5806284BDC8BD34C0E730E9F0E8306A
:1029900019F1E43049F580918000806280938000D5
:1029A000D0938B00C0938A0024C084B5806884BD16
:1029B000C7BD1FC080918000806880938000D09345
:1029C0008900C093880015C08091B0008068809312
:1029D000B000C093B3000DC08091B00080628093BE
:1029E000B000C093B40005C0C038D1050CF0B5CF1D
:1029F000AFCFDF91CF911F9108958E3008F08E50A8
:102A00008770806480937C0080917A0080648093DA
:102A10007A0080917A0086FDFCCF80917800209129
:102A2000790090E0922B08953FB7F894809161016E
:102A300090916201A0916301B091640126B5A89BB9
:102A400005C02F3F19F00196A11DB11D3FBFBA2F40
:102A5000A92F982F8827820F911DA11DB11DBC01A0
:102A6000CD0142E0660F771F881F991F4A95D1F765
:102A700008958F929F92AF92BF92CF92DF92EF9282
:102A8000FF926B017C010E9414154B015C01C11483
:102A9000D104E104F104F1F00E941415DC01CB0132
:102AA00088199909AA09BB09883E9340A105B10577
:102AB00070F321E0C21AD108E108F10888EE880E0F
:102AC00083E0981EA11CB11CC114D104E104F104DF
:102AD00019F7DDCFFF90EF90DF90CF90BF90AF90D0
:102AE0009F908F9008951F920F920FB60F9211240E
:102AF0002F933F938F939F93AF93BF9380915B01ED
:102B000090915C01A0915D01B0915E0130916001F6
:102B100023E0230F2D3720F40196A11DB11D05C020
:102B200026E8230F0296A11DB11D2093600180931A
:102B30005B0190935C01A0935D01B0935E01809175
:102B4000610190916201A0916301B09164010196CD
:102B5000A11DB11D8093610190936201A093630157
:102B6000B0936401BF91AF919F918F913F912F914D
:102B70000F900FBE0F901F901895809165038823CA
:102B800019F08091670301C080E08093B40008953C
:102B90001F920F920FB60F9211242F933F934F93D2
:102BA0005F936F937F938F939F93AF93BF93EF93B5
:102BB000FF9360916603662321F180915F018F5F2F
:102BC00080935F01909159018917D8F09091650326
:102BD00081E089278093650310925F0180915A01FB
:102BE000882369F08091120193E4899F802D11243C
:102BF000895B809312010E947A1C909367030E9464
:102C0000BD15FF91EF91BF91AF919F918F917F91F2
:102C10006F915F914F913F912F910F900FBE0F9049
:102C20001F901895811112C01092A4031092A20354
:102C30001092B1031092B0031092A5031092670393
:102C400010926603109265030C94BD1508958111CE
:102C500014C01092A4031092A2031092B103109218
:102C6000B0031092A50310926703109266031092AE
:102C700065030E94BD1510928E030895CF92DF92D6
:102C8000EF92FF920F931F93CF93DF93C2E7D3E0AE
:102C900009E713E0FF24FA9497E0E92EE00E62E0E2
:102CA00088810E946214288130E0F901ED5DF54FC2
:102CB0008491F901E15FF54FC490F901E550F64FB9
:102CC000D490DD2071F081110E940914ED2DF0E007
:102CD000EE0FFF1FEF50F64FA591B491EC91EC2150
:102CE000B1F4F80180818F5F808360E088810E9469
:102CF000621421960F5F1F4FE012D1CFDF91CF9169
:102D00001F910F91FF90EF90DF90CF900895F80101
:102D10008081882371F3F8018F3F11F41082E5CF91
:102D2000F082E3CFCF93C82FF89460E08091C50381
:102D30000E9432148091C60318161CF460E00E94B1
:102D40003214CEBD00000DB407FEFDCF8EB58091CC
:102D5000C60318161CF461E00E9432147894CF91D7
:102D600008950F931F93CF938091C2038F5F809339
:102D7000C20305E611E0C0E08C2F80640E94921629
:102D800080E80E94921661E08091C5030E9432148F
:102D90008091C60318161CF460E00E94321480E093
:102DA00090E0F801E80FF91F20812EBD00000DB45E
:102DB00007FEFDCF2EB501968435910591F78091E0
:102DC000C60318161CF461E00E943214CF5F0C5A3F
:102DD0001F4FC63089F680E4CF911F910F910C945C
:102DE0009216CF93DF93BC0186EB93E00E9487138A
:102DF000EC016BE371E086EB93E00E94AB138C0F68
:102E00009D1FDF91CF91089586EB93E00E946C1A8D
:102E100069EC79E086EB93E00E9487130E94B1167B
:102E20008CB583608CBD8DB58E7F8DBD8EE391E0BA
:102E3000EEEFFFE309951092BC0384EA99E00E944B
:102E4000F1160E94B1160E943E1680917D038130DA
:102E500039F062E370E080E090E00E943915F3CF32
:102E60000895AF92BF92CF92DF92EF92FF920F93AD
:102E70001F93CF93DF93C82ED12CE601C859DC4FA6
:102E80009DA1992309F44CC07E019FEFE91AF90A2C
:102E9000F70195A1911144C09EA58601000F111F55
:102EA00008591C4FF80134A525A5E32FF22FE90F8F
:102EB000F11DE90FF11D259134912F3FFFEF3F07E1
:102EC00011F41DA22DC039ABF601EE0FFF1FEE5815
:102ED000FC4F3327220F331F05A0F6A1E02DE20F90
:102EE000F31FA590B490811117C00E942716F80116
:102EF000B3AAA2AAF601EE0FFF1FE658FC4F16A2D6
:102F000015A281E0F70185A389E08BAF1EAEFE011B
:102F10007B9615A2329615A229968DA18F5F8DA35F
:102F2000DF91CF911F910F91FF90EF90DF90CF90A5
:102F3000BF90AF90089570E0DB01AA0FBB1FA859A6
:102F4000BC4FD4962C91D497D5969C91D597E22FCF
:102F5000F92FE80FF11DE80FF11D259134915F96CF
:102F600096963C932E939597F90185919491909123
:102F70009103989F802D112468597C4FFB01B196D5
:102F800085A3F901A591B4914B2F50E0E82FF0E013
:102F90004E175F0720F4F90125913491832FFB012F
:102FA000B296899F802D112485A30895AF92BF9278
:102FB000CF92DF92EF92FF920F931F93CF93DF9305
:102FC000182F062FC1E0D3E08AEFD82E9EEFE92E0E
:102FD000842F8470C82E842F8270B82E842F88701E
:102FE000A82E4170F42E8C2F880F8F5FE80ECC2016
:102FF00081F04D2F400F6C2F610F86EB93E00E9404
:103000007D1A4C2F400F6D2F610F86EB93E00E94CD
:103010007D1ABB2081F0402F4D1B6C2F610F86EB7A
:1030200093E00E947D1A402F4C1B6D2F610F86EBA1
:1030300093E00E947D1AAA2081F04C2F400F612F4F
:103040006D1B86EB93E00E947D1A4D2F400F612F80
:103050006C1B86EB93E00E947D1AFF2081F0402FCD
:103060004C1B612F6D1B86EB93E00E947D1A402F55
:103070004D1B612F6C1B86EB93E00E947D1ACD17D0
:1030800044F4E7FC04C0D150D394D394ED0CCF5F4B
:10309000AACFDF91CF911F910F91FF90EF90DF901A
:1030A000CF90BF90AF9008959F92AF92BF92CF9272
:1030B000DF92EF92FF920F931F93CF93DF93F82E3F
:1030C000E62EB22E03E0020FD0E0C3E08AEFC82E56
:1030D0001EEF842F8170982EAA24A394A20E427012
:1030E000D42EDF5F802F8B19180F9920A1F02C2F81
:1030F000220F2A0D4E2D4C1B6D2F6F0D86EB93E08A
:103100000E94EE1B202F4E2D4D1B6C2F6F0D86EB5A
:1031100093E00E94EE1BDD20A1F02C2F220F2A0D40
:103120004E2D4C1B6F2D6D1B86EB93E00E94EE1B0A
:10313000202F4E2D4D1B6F2D6C1B86EB93E00E94B4
:10314000EE1BDC1744F417FD04C0C150C394C394B4
:103150001C0D0E5FC6CFDF91CF911F910F91FF9095
:10316000EF90DF90CF90BF90AF909F900895CF9257
:10317000DF92EF92FF920F931F93CF93DF936B0138
:10318000770FEE08FF08F7FE1BC0EC016DE20E940E
:1031900080138C0144275527BA014C195D096E092B
:1031A0007F092AE0CE010E94C013800F911FDF919A
:1031B000CF911F910F91FF90EF90DF90CF900895E6
:1031C0002AE0B701A601DF91CF911F910F91FF90E7
:1031D000EF90DF90CF900C94C01380918403909176
:1031E0008503892BB1F180918C038F7169F584E19E
:1031F0000E94FD14BC01990F880B990B0E94E51CDD
:1032000026EE3FE34EEC50E40E94491D0E94B41CA0
:103210009B017093830360938203672B91F084E09A
:1032200080938103E4E8F3E080E041915191241719
:10323000350718F48093810308958F5F8430A9F7D0
:1032400003C08FEF8093810380918C038F5F809305
:103250008C0308954F925F926F927F928F929F920C
:10326000AF92BF92CF92DF92EF92FF920F931F9394
:10327000CF93DF93F901C49031965491EC0108A1EA
:1032800064350CF018C10C2C000CDD08A62F062E9E
:10329000000CBB0B7D01EC0CFD1C1E141F040CF07C
:1032A0000AC140330CF007C1A52E842E042E000C59
:1032B0009908F401E50FF11D57FDFA951E161F063A
:1032C0000CF0F9C02E5F3F4FE6012796D7FD2796F9
:1032D00073E0D595C7957A95E1F747FF0AC0A52E0B
:1032E000A40EC89DA001C99D500D1124241B350BAF
:1032F00040E0EA2D0A2C000CFF0BE40FF11D47FD06
:10330000FA95F1971CF050E3A52EA41A67FD60E032
:10331000F701E535F10514F0E4E5F0E07E2FFC015E
:10332000D484D426862F062E000C990BFC01EA1BB0
:10333000FB0BDF017F01F7E0EF22FF24E0E8F0E084
:1033400002C0F595E795EA94E2F71E2FB7FD1796B0
:1033500053E0B595A7955A95E1F72A0F3B1FE42F47
:10336000E77051E001C0550FEA95EAF7459545959C
:103370004595B4E54B02800D911D11248B599E4F4C
:10338000C12C0A2C000CBB08992493942E015524BF
:10339000EC2DF0E0EA15FB050CF08DC0F90144912D
:1033A0000130E1F47C01A12F862E881AB82DBE0DC4
:1033B000B71708F077C0B42FBA2321F0E701B8811E
:1033C000B52BB883B0E0B595A795109719F4319651
:1033D0004491A0E8DFEFED1AFD0AE8CF01111FC00C
:1033E000752E70947C01A12FF901862E881AB82DB4
:1033F000BE0DB71708F056C0B42FBA2321F0E7016D
:10340000B881B721B883B0E0B595A795109719F4A6
:1034100031964491A0E8DFEFED1AFD0AE8CF0330C2
:1034200031F07C01A12FF901862E881A37C0752E44
:103430007094862E7C01A12FF9018716D8F4B42F41
:10344000BA2359F0E701B881682C6D2460FE02C0F0
:10345000B52B02C0B721E701B883B0E0B595A795B9
:10346000109719F431964491A0E88394DFEFED1A98
:10347000FD0AE3CFD92416C0B42FBA2321F0E70107
:10348000B881B527B883B0E0B595A795109719F422
:1034900031964491A0E8DFEFED1AFD0AB82DBE0D7C
:1034A000B71750F3550F19F48C5A9F4F51E0C3943E
:1034B000240D351D6DCFDF91CF911F910F91FF909E
:1034C000EF90DF90CF90BF90AF909F908F907F90C4
:1034D0006F905F904F90089528EF31E0E5E6F1E0BE
:1034E000DF01A9011D9241505040E1F7DC0119961E
:1034F0001C9219971A961C920895FC01643508F0E5
:1035000053C0403308F050C090A1742F7595759545
:103510007595262F062E000C330B542F57709230C2
:10352000A1F4F901EB59FE4F84E57802E00DF11D9D
:103530001124808190E0052E02C0959587950A940C
:10354000E2F78095982F91700AC0933041F48485FA
:103550008170462740954170841303C014C09111B7
:1035600012C084E57802200D311D1124F901EB59B8
:10357000FE4F81E090E001C0880F5A95EAF78095F0
:103580009081892310C084E57802200D311D11241B
:10359000F901EB59FE4F81E090E001C0880F5A9588
:1035A000EAF79081892B80830895DF92EF92FF9252
:1035B0000F931F93CF93DF931F92CDB7DEB78C018C
:1035C000D62EF42EE12CE21654F46E2D6D0D4F2DF7
:1035D000C80129830E947D1AE3942981F4CF0F90BA
:1035E000DF91CF911F910F91FF90EF90DF900895A1
:1035F0002F923F924F925F926F927F928F929F9203
:10360000AF92BF92CF92DF92EF92FF920F931F93F0
:10361000CF93DF93EC016A3019F42D819885C3C0F4
:103620006D3009F4C6C038847A84D98448A083E513
:103630008D150CF4A1C08FE287150CF49DC08C8110
:1036400090E00197389E9001399E300D1124C901F8
:103650008D0D911DD7FC9A95181619060CF08CC08B
:103660008D81839DC0011124870D911D77FC9A9552
:10367000181619060CF080C05D2CCD2CE62EF12C0E
:10368000A32C032C000CBB08EC2DED190E2E000C06
:10369000FF0B8C8190E0E817F9070CF06CC00197E4
:1036A000E817F90779F0E89E9001E99E300DF89E41
:1036B000300D1124E20FF31F8E8D9F8DE80FF91F3F
:1036C000149101C010E0072D672C262D2719022E1A
:1036D000000C330B8D8190E0281739070CF048C09F
:1036E00010FF1EC081E0381206C0462D6C2DCE01A1
:1036F0000E947D1A39C0202E4501800E911C07FDC5
:103700009A94822D022C000C990B8815990564F56A
:10371000232D422D652DCE010E94D51A2394F1CF81
:1037200089A198A1891701F188A381E0381206C008
:10373000462D6C2DCE010E947D1A15C0202E45010C
:10374000800E911C07FD9A94822D022C000C990B7F
:103750008815990544F4232D422D652DCE010E9434
:10376000D51A2394F1CF48A216956394030DADCFDB
:10377000C394530C89CF48A228853C818985329F08
:10378000800D112489879F81992399F0082E000CC0
:10379000990B44E550E0239F401951091124481723
:1037A00059073CF49D818A85299F800D11248A87C1
:1037B000198681E090E0DF91CF911F910F91FF90EA
:1037C000EF90DF90CF90BF90AF909F908F907F90C1
:1037D0006F905F904F903F902F900895DF92EF92FF
:1037E000FF920F931F93CF93DF931F92CDB7DEB756
:1037F0008C01D62EF42EE12CE21654F44E2D4F0DF2
:103800006D2DC80129830E947D1AE3942981F4CF8C
:103810000F90DF91CF911F910F91FF90EF90DF906C
:103820000895789484B5826084BD84B5816084BD38
:1038300085B5826085BD85B5816085BD80916E004E
:10384000816080936E00109281008091810082607F
:1038500080938100809181008160809381008091BC
:1038600080008160809380008091B10084608093AB
:10387000B1008091B00081608093B00080917A00A7
:10388000846080937A0080917A00826080937A00CD
:1038900080917A00816080937A0080917A008068BC
:1038A00080937A001092C1000E947505C0E0D0E0BC
:1038B0000E94FD082097E1F30E940000F9CF1092CA
:1038C000B9031092B80387E391E09093B703809314
:1038D000B6030895DB018F939F930E945E1EBF91F4
:1038E000AF91A29F800D911DA39F900DB29F900D4F
:1038F00011240895991B79E004C0991F961708F0C8
:10390000961B881F7A95C9F78095089597FB072E17
:1039100016F4009407D077FD09D00E949A1C07FC8A
:1039200005D03EF4909581959F4F089570956195CF
:103930007F4F0895AA1BBB1B51E107C0AA1FBB1FE5
:10394000A617B70710F0A61BB70B881F991F5A952B
:10395000A9F780959095BC01CD010895EE0FFF1F4A
:103960000590F491E02D09940E94281D88F09F573E
:1039700098F0B92F9927B751B0F0E1F0660F771F93
:10398000881F991F1AF0BA95C9F714C0B13091F089
:103990000E94421DB1E008950C94421D672F782FBC
:1039A0008827B85F39F0B93FCCF38695779567954E
:1039B000B395D9F73EF490958095709561957F4FBA
:1039C0008F4F9F4F0895E89409C097FB3EF4909560
:1039D0008095709561957F4F8F4F9F4F9923A9F0E8
:1039E000F92F96E9BB279395F69587957795679577
:1039F000B795F111F8CFFAF4BB0F11F460FF1BC0BB
:103A00006F5F7F4F8F4F9F4F16C0882311F096E94D
:103A100011C0772321F09EE8872F762F05C06623FB
:103A200071F096E8862F70E060E02AF09A95660FB4
:103A3000771F881FDAF7880F9695879597F908956D
:103A400057FD9058440F551F59F05F3F71F047954F
:103A5000880F97FB991F61F09F3F79F08795089534
:103A6000121613061406551FF2CF4695F1DF08C053
:103A7000161617061806991FF1CF86957105610570
:103A800008940895E894BB2766277727CB0197F918
:103A900008950E945C1D0C94CD1D0E94BF1D38F03E
:103AA0000E94C61D20F0952311F00C94B61D0C94B5
:103AB000BC1D11240C94431D0E94201D70F3959F82
:103AC000C1F3950F50E0551F629FF001729FBB2715
:103AD000F00DB11D639FAA27F00DB11DAA1F649FB1
:103AE0006627B00DA11D661F829F2227B00DA11D64
:103AF000621F739FB00DA11D621F839FA00D611DEA
:103B0000221F749F3327A00D611D231F849F600D0A
:103B1000211D822F762F6A2F11249F5750409AF033
:103B2000F1F088234AF0EE0FFF1FBB1F661F771FBF
:103B3000881F91505040A9F79E3F510580F00C948A
:103B4000B61D0C94431D5F3FE4F3983ED4F3869575
:103B500077956795B795F795E7959F5FC1F7FE2B2A
:103B6000880F911D9695879597F9089597F99F6706
:103B700080E870E060E008959FEF80EC08950024F5
:103B80000A941616170618060906089500240A94C2
:103B900012161306140605060895092E0394000C48
:103BA00011F4882352F0BB0F40F4BF2B11F460FFD7
:103BB00004C06F5F7F4F8F4F9F4F089581E090E06B
:103BC000F8940C94A21E8F929F92AF92BF92CF92C4
:103BD000DF92EF92FF92CF93DF93EC0168817981BE
:103BE0008A819B81611571058105910521F464E24B
:103BF00079ED8BE597E02DE133EF41E050E00E9455
:103C00003F1E49015A019B01AC01A7EAB1E40E94A1
:103C10005E1E6B017C01ACEEB4EFA50194010E9425
:103C20006C1EDC01CB018C0D9D1DAE1DBF1DB7FFB1
:103C300003C00197A109B04888839983AA83BB83F5
:103C4000BC01CD019F77DF91CF91FF90EF90DF9086
:103C5000CF90BF90AF909F908F9008950E94E31DEA
:103C6000089589E191E00E94E31D08956093190190
:103C700070931A0180931B0190931C010895052EE7
:103C800097FB1EF400940E94561E57FD07D00E9419
:103C9000711E07FC03D04EF40C94561E50954095AF
:103CA000309521953F4F4F4F5F4F089590958095E8
:103CB000709561957F4F8F4F9F4F08950E94931E7F
:103CC000A59F900DB49F900DA49F800D911D112470
:103CD0000895B7FF0C945E1E0E945E1E821B930B1C
:103CE0000895A1E21A2EAA1BBB1BFD010DC0AA1F3D
:103CF000BB1FEE1FFF1FA217B307E407F50720F055
:103D0000A21BB30BE40BF50B661F771F881F991FCF
:103D10001A9469F760957095809590959B01AC0118
:103D2000BD01CF010895A29FB001B39FC001A39F21
:103D3000700D811D1124911DB29F700D811D1124E4
:083D4000911D0895F894FFCFD6
:103D48000100100014001E001E000A000A000B00EB
:103D58002A00010000EF03800001000000B4009277
:103D68000070003C011A01F800D600C401A20180CD
:103D7800015E0100000000F81A06120D0A004C4FFF
:063D880041444552000019
:00000001FF
